:020000040000FA
:020000000528D1
:040002000034003492
:080008003F288316031789014C
:1000100083160313860183120313FF30860000301A
:10002000A0000A30A30003011E2086002D20A00A94
:1000300020080F3A03193728200814288207803433
:100040008034F834803480340034F8348834F83420
:100050000034F8348834F8340034FA30A100053024
:10006000A2000000A20B3128A10B2F2808000301D9
:10007000A0010A30A3002D20A30B3B281428000068
:02008000090075
:00000001FF
